{
  "_format": "hh-sol-artifact-1",
  "contractName": "OpenSeaMarket",
  "sourceName": "contracts/OpenSea.sol",
  "abi": [
    {
      "inputs": [
        {
          "internalType": "address",
          "name": "_nftContract",
          "type": "address"
        },
        {
          "internalType": "uint256",
          "name": "_listingFees",
          "type": "uint256"
        }
      ],
      "stateMutability": "nonpayable",
      "type": "constructor"
    },
    {
      "inputs": [
        {
          "internalType": "uint256",
          "name": "",
          "type": "uint256"
        }
      ],
      "name": "author",
      "outputs": [
        {
          "internalType": "address",
          "name": "",
          "type": "address"
        }
      ],
      "stateMutability": "view",
      "type": "function"
    },
    {
      "inputs": [
        {
          "internalType": "uint256",
          "name": "_tokenId",
          "type": "uint256"
        }
      ],
      "name": "buyNft",
      "outputs": [
        {
          "internalType": "bool",
          "name": "",
          "type": "bool"
        }
      ],
      "stateMutability": "payable",
      "type": "function"
    },
    {
      "inputs": [
        {
          "internalType": "uint256",
          "name": "_tokenId",
          "type": "uint256"
        },
        {
          "internalType": "uint256",
          "name": "_price",
          "type": "uint256"
        }
      ],
      "name": "listNft",
      "outputs": [
        {
          "internalType": "bool",
          "name": "",
          "type": "bool"
        }
      ],
      "stateMutability": "payable",
      "type": "function"
    },
    {
      "inputs": [],
      "name": "listingFees",
      "outputs": [
        {
          "internalType": "uint256",
          "name": "",
          "type": "uint256"
        }
      ],
      "stateMutability": "view",
      "type": "function"
    },
    {
      "inputs": [
        {
          "internalType": "uint256",
          "name": "",
          "type": "uint256"
        }
      ],
      "name": "listings",
      "outputs": [
        {
          "internalType": "uint256",
          "name": "tokenId",
          "type": "uint256"
        },
        {
          "internalType": "address",
          "name": "seller",
          "type": "address"
        },
        {
          "internalType": "uint256",
          "name": "price",
          "type": "uint256"
        },
        {
          "internalType": "bool",
          "name": "listed",
          "type": "bool"
        }
      ],
      "stateMutability": "view",
      "type": "function"
    },
    {
      "inputs": [],
      "name": "nftContract",
      "outputs": [
        {
          "internalType": "contract IERC721",
          "name": "",
          "type": "address"
        }
      ],
      "stateMutability": "view",
      "type": "function"
    },
    {
      "inputs": [
        {
          "internalType": "address",
          "name": "operator",
          "type": "address"
        },
        {
          "internalType": "address",
          "name": "from",
          "type": "address"
        },
        {
          "internalType": "uint256",
          "name": "tokenId",
          "type": "uint256"
        },
        {
          "internalType": "bytes",
          "name": "data",
          "type": "bytes"
        }
      ],
      "name": "onERC721Received",
      "outputs": [
        {
          "internalType": "bytes4",
          "name": "",
          "type": "bytes4"
        }
      ],
      "stateMutability": "nonpayable",
      "type": "function"
    },
    {
      "inputs": [],
      "name": "owner",
      "outputs": [
        {
          "internalType": "address",
          "name": "",
          "type": "address"
        }
      ],
      "stateMutability": "view",
      "type": "function"
    },
    {
      "inputs": [
        {
          "internalType": "uint256",
          "name": "_listingFees",
          "type": "uint256"
        }
      ],
      "name": "setListingFees",
      "outputs": [],
      "stateMutability": "nonpayable",
      "type": "function"
    }
  ],
  "bytecode": "0x60806040523480156200001157600080fd5b50604051620012403803806200124083398181016040528101906200003791906200016c565b33600260006101000a81548173ffffffffffffffffffffffffffffffffffffffff021916908373ffffffffffffffffffffffffffffffffffffffff160217905550816000806101000a81548173ffffffffffffffffffffffffffffffffffffffff021916908373ffffffffffffffffffffffffffffffffffffffff160217905550806001819055505050620001b3565b600080fd5b600073ffffffffffffffffffffffffffffffffffffffff82169050919050565b6000620000f982620000cc565b9050919050565b6200010b81620000ec565b81146200011757600080fd5b50565b6000815190506200012b8162000100565b92915050565b6000819050919050565b620001468162000131565b81146200015257600080fd5b50565b60008151905062000166816200013b565b92915050565b60008060408385031215620001865762000185620000c7565b5b600062000196858286016200011a565b9250506020620001a98582860162000155565b9150509250929050565b61107d80620001c36000396000f3fe6080604052600436106100865760003560e01c8063c636f63611610059578063c636f6361461014e578063d56d229d14610177578063de74e57b146101a2578063ec4eb442146101e2578063fe8723e11461021f57610086565b8063150b7a021461008b578063243adbdd146100c85780635d7e2655146100f85780638da5cb5b14610123575b600080fd5b34801561009757600080fd5b506100b260048036038101906100ad9190610aa1565b61024f565b6040516100bf9190610b64565b60405180910390f35b6100e260048036038101906100dd9190610b7f565b61025a565b6040516100ef9190610bc7565b60405180910390f35b34801561010457600080fd5b5061010d61042e565b60405161011a9190610bf1565b60405180910390f35b34801561012f57600080fd5b50610138610434565b6040516101459190610c1b565b60405180910390f35b34801561015a57600080fd5b5061017560048036038101906101709190610b7f565b61045a565b005b34801561018357600080fd5b5061018c6104f4565b6040516101999190610c95565b60405180910390f35b3480156101ae57600080fd5b506101c960048036038101906101c49190610b7f565b610518565b6040516101d99493929190610cb0565b60405180910390f35b3480156101ee57600080fd5b5061020960048036038101906102049190610b7f565b610575565b6040516102169190610c1b565b60405180910390f35b61023960048036038101906102349190610cf5565b6105a8565b6040516102469190610bc7565b60405180910390f35b600095945050505050565b6000806004600084815260200190815260200160002090508060030160009054906101000a900460ff166102c3576040517f08c379a00000000000000000000000000000000000000000000000000000000081526004016102ba90610d92565b60405180910390fd5b80600201543414610309576040517f08c379a000000000000000000000000000000000000000000000000000000000815260040161030090610dfe565b60405180910390fd5b60008160030160006101000a81548160ff0219169083151502179055508060010160009054906101000a900473ffffffffffffffffffffffffffffffffffffffff1673ffffffffffffffffffffffffffffffffffffffff166108fc82600201549081150290604051600060405180830381858888f19350505050158015610394573d6000803e3d6000fd5b5060008054906101000a900473ffffffffffffffffffffffffffffffffffffffff1673ffffffffffffffffffffffffffffffffffffffff166342842e0e3033866040518463ffffffff1660e01b81526004016103f293929190610e1e565b600060405180830381600087803b15801561040c57600080fd5b505af1158015610420573d6000803e3d6000fd5b505050506001915050919050565b60015481565b600260009054906101000a900473ffffffffffffffffffffffffffffffffffffffff1681565b600260009054906101000a900473ffffffffffffffffffffffffffffffffffffffff1673ffffffffffffffffffffffffffffffffffffffff163373ffffffffffffffffffffffffffffffffffffffff16146104ea576040517f08c379a00000000000000000000000000000000000000000000000000000000081526004016104e190610ea1565b60405180910390fd5b8060018190555050565b60008054906101000a900473ffffffffffffffffffffffffffffffffffffffff1681565b60046020528060005260406000206000915090508060000154908060010160009054906101000a900473ffffffffffffffffffffffffffffffffffffffff16908060020154908060030160009054906101000a900460ff16905084565b60036020528060005260406000206000915054906101000a900473ffffffffffffffffffffffffffffffffffffffff1681565b60008060009054906101000a900473ffffffffffffffffffffffffffffffffffffffff1673ffffffffffffffffffffffffffffffffffffffff16636352211e846040518263ffffffff1660e01b81526004016106049190610bf1565b602060405180830381865afa158015610621573d6000803e3d6000fd5b505050506040513d601f19601f820116820180604052508101906106459190610ed6565b73ffffffffffffffffffffffffffffffffffffffff163373ffffffffffffffffffffffffffffffffffffffff16146106b2576040517f08c379a00000000000000000000000000000000000000000000000000000000081526004016106a990610f4f565b60405180910390fd5b60015434146106f6576040517f08c379a00000000000000000000000000000000000000000000000000000000081526004016106ed90610fbb565b60405180910390fd5b60008211610739576040517f08c379a000000000000000000000000000000000000000000000000000000000815260040161073090611027565b60405180910390fd5b600073ffffffffffffffffffffffffffffffffffffffff166003600085815260200190815260200160002060009054906101000a900473ffffffffffffffffffffffffffffffffffffffff1673ffffffffffffffffffffffffffffffffffffffff16036107f357336003600085815260200190815260200160002060006101000a81548173ffffffffffffffffffffffffffffffffffffffff021916908373ffffffffffffffffffffffffffffffffffffffff1602179055505b60405180608001604052808481526020013373ffffffffffffffffffffffffffffffffffffffff16815260200183815260200160011515815250600460008581526020019081526020016000206000820151816000015560208201518160010160006101000a81548173ffffffffffffffffffffffffffffffffffffffff021916908373ffffffffffffffffffffffffffffffffffffffff1602179055506040820151816002015560608201518160030160006101000a81548160ff0219169083151502179055509050503073ffffffffffffffffffffffffffffffffffffffff166108fc349081150290604051600060405180830381858888f19350505050158015610904573d6000803e3d6000fd5b5060008054906101000a900473ffffffffffffffffffffffffffffffffffffffff1673ffffffffffffffffffffffffffffffffffffffff166342842e0e3330866040518463ffffffff1660e01b815260040161096293929190610e1e565b600060405180830381600087803b15801561097c57600080fd5b505af1158015610990573d6000803e3d6000fd5b505050506001905092915050565b600080fd5b600080fd5b600073ffffffffffffffffffffffffffffffffffffffff82169050919050565b60006109d3826109a8565b9050919050565b6109e3816109c8565b81146109ee57600080fd5b50565b600081359050610a00816109da565b92915050565b6000819050919050565b610a1981610a06565b8114610a2457600080fd5b50565b600081359050610a3681610a10565b92915050565b600080fd5b600080fd5b600080fd5b60008083601f840112610a6157610a60610a3c565b5b8235905067ffffffffffffffff811115610a7e57610a7d610a41565b5b602083019150836001820283011115610a9a57610a99610a46565b5b9250929050565b600080600080600060808688031215610abd57610abc61099e565b5b6000610acb888289016109f1565b9550506020610adc888289016109f1565b9450506040610aed88828901610a27565b935050606086013567ffffffffffffffff811115610b0e57610b0d6109a3565b5b610b1a88828901610a4b565b92509250509295509295909350565b60007fffffffff0000000000000000000000000000000000000000000000000000000082169050919050565b610b5e81610b29565b82525050565b6000602082019050610b796000830184610b55565b92915050565b600060208284031215610b9557610b9461099e565b5b6000610ba384828501610a27565b91505092915050565b60008115159050919050565b610bc181610bac565b82525050565b6000602082019050610bdc6000830184610bb8565b92915050565b610beb81610a06565b82525050565b6000602082019050610c066000830184610be2565b92915050565b610c15816109c8565b82525050565b6000602082019050610c306000830184610c0c565b92915050565b6000819050919050565b6000610c5b610c56610c51846109a8565b610c36565b6109a8565b9050919050565b6000610c6d82610c40565b9050919050565b6000610c7f82610c62565b9050919050565b610c8f81610c74565b82525050565b6000602082019050610caa6000830184610c86565b92915050565b6000608082019050610cc56000830187610be2565b610cd26020830186610c0c565b610cdf6040830185610be2565b610cec6060830184610bb8565b95945050505050565b60008060408385031215610d0c57610d0b61099e565b5b6000610d1a85828601610a27565b9250506020610d2b85828601610a27565b9150509250929050565b600082825260208201905092915050565b7f4e6674206973206e6f7420666f722073616c6521000000000000000000000000600082015250565b6000610d7c601483610d35565b9150610d8782610d46565b602082019050919050565b60006020820190508181036000830152610dab81610d6f565b9050919050565b7f57726f6e67205072696365000000000000000000000000000000000000000000600082015250565b6000610de8600b83610d35565b9150610df382610db2565b602082019050919050565b60006020820190508181036000830152610e1781610ddb565b9050919050565b6000606082019050610e336000830186610c0c565b610e406020830185610c0c565b610e4d6040830184610be2565b949350505050565b7f4f6e6c79206f776e65722063616e2063616c6c20746869732066756374696f6e600082015250565b6000610e8b602083610d35565b9150610e9682610e55565b602082019050919050565b60006020820190508181036000830152610eba81610e7e565b9050919050565b600081519050610ed0816109da565b92915050565b600060208284031215610eec57610eeb61099e565b5b6000610efa84828501610ec1565b91505092915050565b7f596f7520646f6e74206861766520616363657373000000000000000000000000600082015250565b6000610f39601483610d35565b9150610f4482610f03565b602082019050919050565b60006020820190508181036000830152610f6881610f2c565b9050919050565b7f496e636f7272656374206c697374696e67206665650000000000000000000000600082015250565b6000610fa5601583610d35565b9150610fb082610f6f565b602082019050919050565b60006020820190508181036000830152610fd481610f98565b9050919050565b7f5072696365206f6620746865206e66742063616e6e6f74206265207a65726f00600082015250565b6000611011601f83610d35565b915061101c82610fdb565b602082019050919050565b6000602082019050818103600083015261104081611004565b905091905056fea26469706673582212208c808d11d9e3a9f43326bf9b58dbb499426e20e79779ae74b1e6321f3a82bc1c64736f6c63430008140033",
  "linkReferences": {},
  "deployedLinkReferences": {}
}