{
  "_format": "hh-sol-artifact-1",
  "contractName": "TokenBank",
  "sourceName": "contracts/Bank.sol",
  "abi": [
    {
      "inputs": [
        {
          "internalType": "address",
          "name": "_tokenAddress",
          "type": "address"
        }
      ],
      "stateMutability": "nonpayable",
      "type": "constructor"
    },
    {
      "inputs": [
        {
          "internalType": "uint256",
          "name": "amount",
          "type": "uint256"
        }
      ],
      "name": "deposit",
      "outputs": [],
      "stateMutability": "nonpayable",
      "type": "function"
    },
    {
      "inputs": [
        {
          "internalType": "address",
          "name": "",
          "type": "address"
        }
      ],
      "name": "depositBalance",
      "outputs": [
        {
          "internalType": "uint256",
          "name": "",
          "type": "uint256"
        }
      ],
      "stateMutability": "view",
      "type": "function"
    },
    {
      "inputs": [
        {
          "internalType": "address",
          "name": "",
          "type": "address"
        },
        {
          "internalType": "uint256",
          "name": "",
          "type": "uint256"
        }
      ],
      "name": "depositLog",
      "outputs": [
        {
          "internalType": "uint256",
          "name": "money",
          "type": "uint256"
        },
        {
          "internalType": "uint256",
          "name": "time",
          "type": "uint256"
        }
      ],
      "stateMutability": "view",
      "type": "function"
    },
    {
      "inputs": [
        {
          "internalType": "address",
          "name": "person",
          "type": "address"
        }
      ],
      "name": "getBalance",
      "outputs": [
        {
          "internalType": "uint256",
          "name": "",
          "type": "uint256"
        }
      ],
      "stateMutability": "view",
      "type": "function"
    },
    {
      "inputs": [],
      "name": "token",
      "outputs": [
        {
          "internalType": "contract IERC20",
          "name": "",
          "type": "address"
        }
      ],
      "stateMutability": "view",
      "type": "function"
    },
    {
      "inputs": [
        {
          "internalType": "uint256",
          "name": "amount",
          "type": "uint256"
        }
      ],
      "name": "withdraw",
      "outputs": [],
      "stateMutability": "nonpayable",
      "type": "function"
    }
  ],
  "bytecode": "0x608060405260146003553480156200001657600080fd5b506040516200112b3803806200112b83398181016040528101906200003c9190620000ed565b806000806101000a81548173ffffffffffffffffffffffffffffffffffffffff021916908373ffffffffffffffffffffffffffffffffffffffff160217905550506200011f565b600080fd5b600073ffffffffffffffffffffffffffffffffffffffff82169050919050565b6000620000b58262000088565b9050919050565b620000c781620000a8565b8114620000d357600080fd5b50565b600081519050620000e781620000bc565b92915050565b60006020828403121562000106576200010562000083565b5b60006200011684828501620000d6565b91505092915050565b610ffc806200012f6000396000f3fe608060405234801561001057600080fd5b50600436106100625760003560e01c80632e1a7d4d14610067578063956501bb14610083578063b6b55f25146100b3578063e0fbaffd146100cf578063f8b2cb4f14610100578063fc0c546a14610130575b600080fd5b610081600480360381019061007c9190610897565b61014e565b005b61009d60048036038101906100989190610922565b6104cf565b6040516100aa919061095e565b60405180910390f35b6100cd60048036038101906100c89190610897565b6104e7565b005b6100e960048036038101906100e49190610979565b610753565b6040516100f79291906109b9565b60405180910390f35b61011a60048036038101906101159190610922565b610794565b604051610127919061095e565b60405180910390f35b610138610838565b6040516101459190610a41565b60405180910390f35b60008111610191576040517f08c379a000000000000000000000000000000000000000000000000000000000815260040161018890610adf565b60405180910390fd5b80600160003373ffffffffffffffffffffffffffffffffffffffff1673ffffffffffffffffffffffffffffffffffffffff168152602001908152602001600020541015610213576040517f08c379a000000000000000000000000000000000000000000000000000000000815260040161020a90610b4b565b60405180910390fd5b60004290506000805b600260003373ffffffffffffffffffffffffffffffffffffffff1673ffffffffffffffffffffffffffffffffffffffff1681526020019081526020016000208054905081101561035357600260003373ffffffffffffffffffffffffffffffffffffffff1673ffffffffffffffffffffffffffffffffffffffff16815260200190815260200160002081815481106102b7576102b6610b6b565b5b906000526020600020906002020160010154831061034057600260003373ffffffffffffffffffffffffffffffffffffffff1673ffffffffffffffffffffffffffffffffffffffff16815260200190815260200160002081815481106103205761031f610b6b565b5b9060005260206000209060020201600001548261033d9190610bc9565b91505b808061034b90610bfd565b91505061021c565b5082811015610397576040517f08c379a000000000000000000000000000000000000000000000000000000000815260040161038e90610c91565b60405180910390fd5b82600160003373ffffffffffffffffffffffffffffffffffffffff1673ffffffffffffffffffffffffffffffffffffffff16815260200190815260200160002060008282546103e69190610cb1565b9250508190555060008054906101000a900473ffffffffffffffffffffffffffffffffffffffff1673ffffffffffffffffffffffffffffffffffffffff1663a9059cbb33856040518363ffffffff1660e01b8152600401610448929190610cf4565b6020604051808303816000875af1158015610467573d6000803e3d6000fd5b505050506040513d601f19601f8201168201806040525081019061048b9190610d55565b6104ca576040517f08c379a00000000000000000000000000000000000000000000000000000000081526004016104c190610dce565b60405180910390fd5b505050565b60016020528060005260406000206000915090505481565b6000811161052a576040517f08c379a000000000000000000000000000000000000000000000000000000000815260040161052190610e3a565b60405180910390fd5b8061053433610794565b1015610575576040517f08c379a000000000000000000000000000000000000000000000000000000000815260040161056c90610ea6565b60405180910390fd5b6000600354426105859190610bc9565b9050600260003373ffffffffffffffffffffffffffffffffffffffff1673ffffffffffffffffffffffffffffffffffffffff16815260200190815260200160002060405180604001604052808481526020018381525090806001815401808255809150506001900390600052602060002090600202016000909190919091506000820151816000015560208201518160010155505081600160003373ffffffffffffffffffffffffffffffffffffffff1673ffffffffffffffffffffffffffffffffffffffff16815260200190815260200160002060008282546106699190610bc9565b9250508190555060008054906101000a900473ffffffffffffffffffffffffffffffffffffffff1673ffffffffffffffffffffffffffffffffffffffff166323b872dd3330856040518463ffffffff1660e01b81526004016106cd93929190610ec6565b6020604051808303816000875af11580156106ec573d6000803e3d6000fd5b505050506040513d601f19601f820116820180604052508101906107109190610d55565b61074f576040517f08c379a000000000000000000000000000000000000000000000000000000000815260040161074690610f49565b60405180910390fd5b5050565b6002602052816000526040600020818154811061076f57600080fd5b9060005260206000209060020201600091509150508060000154908060010154905082565b60008060009054906101000a900473ffffffffffffffffffffffffffffffffffffffff1673ffffffffffffffffffffffffffffffffffffffff166370a08231836040518263ffffffff1660e01b81526004016107f09190610f69565b602060405180830381865afa15801561080d573d6000803e3d6000fd5b505050506040513d601f19601f820116820180604052508101906108319190610f99565b9050919050565b60008054906101000a900473ffffffffffffffffffffffffffffffffffffffff1681565b600080fd5b6000819050919050565b61087481610861565b811461087f57600080fd5b50565b6000813590506108918161086b565b92915050565b6000602082840312156108ad576108ac61085c565b5b60006108bb84828501610882565b91505092915050565b600073ffffffffffffffffffffffffffffffffffffffff82169050919050565b60006108ef826108c4565b9050919050565b6108ff816108e4565b811461090a57600080fd5b50565b60008135905061091c816108f6565b92915050565b6000602082840312156109385761093761085c565b5b60006109468482850161090d565b91505092915050565b61095881610861565b82525050565b6000602082019050610973600083018461094f565b92915050565b600080604083850312156109905761098f61085c565b5b600061099e8582860161090d565b92505060206109af85828601610882565b9150509250929050565b60006040820190506109ce600083018561094f565b6109db602083018461094f565b9392505050565b6000819050919050565b6000610a07610a026109fd846108c4565b6109e2565b6108c4565b9050919050565b6000610a19826109ec565b9050919050565b6000610a2b82610a0e565b9050919050565b610a3b81610a20565b82525050565b6000602082019050610a566000830184610a32565b92915050565b600082825260208201905092915050565b7f5769746864726177616c20616d6f756e74206d7573742062652067726561746560008201527f72207468616e2030000000000000000000000000000000000000000000000000602082015250565b6000610ac9602883610a5c565b9150610ad482610a6d565b604082019050919050565b60006020820190508181036000830152610af881610abc565b9050919050565b7f6c696e6520323600000000000000000000000000000000000000000000000000600082015250565b6000610b35600783610a5c565b9150610b4082610aff565b602082019050919050565b60006020820190508181036000830152610b6481610b28565b9050919050565b7f4e487b7100000000000000000000000000000000000000000000000000000000600052603260045260246000fd5b7f4e487b7100000000000000000000000000000000000000000000000000000000600052601160045260246000fd5b6000610bd482610861565b9150610bdf83610861565b9250828201905080821115610bf757610bf6610b9a565b5b92915050565b6000610c0882610861565b91507fffffffffffffffffffffffffffffffffffffffffffffffffffffffffffffffff8203610c3a57610c39610b9a565b5b600182019050919050565b7f4e6f7420656e6f75676820617661696c61626c6520746f207769746864727761600082015250565b6000610c7b602083610a5c565b9150610c8682610c45565b602082019050919050565b60006020820190508181036000830152610caa81610c6e565b9050919050565b6000610cbc82610861565b9150610cc783610861565b9250828203905081811115610cdf57610cde610b9a565b5b92915050565b610cee816108e4565b82525050565b6000604082019050610d096000830185610ce5565b610d16602083018461094f565b9392505050565b60008115159050919050565b610d3281610d1d565b8114610d3d57600080fd5b50565b600081519050610d4f81610d29565b92915050565b600060208284031215610d6b57610d6a61085c565b5b6000610d7984828501610d40565b91505092915050565b7f6c696e6532390000000000000000000000000000000000000000000000000000600082015250565b6000610db8600683610a5c565b9150610dc382610d82565b602082019050919050565b60006020820190508181036000830152610de781610dab565b9050919050565b7f616d6f756e742063616e6e6f74206265207a65726f0000000000000000000000600082015250565b6000610e24601583610a5c565b9150610e2f82610dee565b602082019050919050565b60006020820190508181036000830152610e5381610e17565b9050919050565b7f496e73756666696369656e7420546f6b656e0000000000000000000000000000600082015250565b6000610e90601283610a5c565b9150610e9b82610e5a565b602082019050919050565b60006020820190508181036000830152610ebf81610e83565b9050919050565b6000606082019050610edb6000830186610ce5565b610ee86020830185610ce5565b610ef5604083018461094f565b949350505050565b7f6c696e6532300000000000000000000000000000000000000000000000000000600082015250565b6000610f33600683610a5c565b9150610f3e82610efd565b602082019050919050565b60006020820190508181036000830152610f6281610f26565b9050919050565b6000602082019050610f7e6000830184610ce5565b92915050565b600081519050610f938161086b565b92915050565b600060208284031215610faf57610fae61085c565b5b6000610fbd84828501610f84565b9150509291505056fea2646970667358221220ba7a11855c76d1ebde555aa4b2c7e6c6f627922fa69558d52ce9b015d6a7d9d664736f6c63430008140033",
  "linkReferences": {},
  "deployedLinkReferences": {}
}